:100000000C945D000C9485000C9485000C94850084
:100010000C9485000C94BB020C9485000C94850014
:100020000C9485000C9485000C9485000C9485003C
:100030000C9485000C9485000C9485000C9485002C
:100040000C9419020C9485000C9489020C946302A0
:100050000C9485000C9485000C9485000C9485000C
:100060000C9485000C9485000000000024002700FB
:100070002A0000000000250028002B0004040404CE
:100080000404040402020202020203030303030342
:10009000010204081020408001020408102001021F
:1000A00004081020000000080002010000030407FB
:1000B0000000000000000000100311241FBECFEF5D
:1000C000D8E0DEBFCDBF11E0A0E0B1E0EAE9FDE09D
:1000D00002C005900D92A232B107D9F721E0A2E249
:1000E000B1E001C01D92A43DB207E1F710E0CDE5FB
:1000F000D0E004C02197FE010E94C006CC35D10794
:10010000C9F70E943D030C94CB060C940000EBEA67
:10011000F0E09491E7E9F0E02491E3E8F0E0E49185
:10012000EE2309F43CC0992339F1933091F038F46F
:100130009130A9F0923001F594B59F7D12C09730AF
:1001400091F09830A1F09430B9F4909180009F7DA7
:1001500003C0909180009F77909380000DC094B56C
:100160009F7794BD09C09091B0009F7703C0909194
:10017000B0009F7D9093B000F0E0EE0FFF1FEE58AF
:10018000FF4FA591B4919FB7F894811104C08C9151
:100190002095282302C0EC912E2B2C939FBF08950D
:1001A0003FB7F8948091330190913401A0913501CB
:1001B000B091360126B5A89B05C02F3F19F00196D6
:1001C000A11DB11D3FBFBA2FA92F982F8827820FDD
:1001D000911DA11DB11DBC01CD0142E0660F771F2D
:1001E000881F991F4A95D1F70895CF92DF92EF9219
:1001F000FF920F931F93CF93DF936C017A018B01D2
:10020000C0E0D0E0CE15DF0581F0D8016D918D0101
:10021000D601ED91FC910190F081E02DC601099588
:10022000892B11F02196EECF7E01C701DF91CF918E
:100230001F910F91FF90EF90DF90CF900895089558
:1002400080E090E00895FC01538D448D252F30E02F
:10025000842F90E0821B930B541710F0CF960895D3
:1002600001970895FC01918D828D981761F0828D20
:10027000DF01A80FB11D5D968C91928D9F5F9F73DA
:10028000928F90E008958FEF9FEF0895FC01918D7C
:10029000828D981731F0828DE80FF11D858D90E0E9
:1002A00008958FEF9FEF0895FC01918D228D892F86
:1002B00090E0805C9F4F821B91098F73992708956E
:1002C00087E391E00E94540121E0892B09F420E0AA
:1002D000822F0895FC01848DDF01A80FB11DA35A60
:1002E000BF4F2C91848D90E001968F739927848F56
:1002F000A689B7892C93A089B1898C918370806479
:100300008C93938D848D981306C00288F389E02D19
:1003100080818F7D80830895EF92FF920F931F93CA
:10032000CF93DF93EC0181E0888F9B8D8C8D9813A8
:1003300005C0E889F989808185FD26C0F62E0B8DE0
:1003400010E00F5F1F4F0F731127E02E8C8DE81206
:100350000CC00FB607FCFACFE889F989808185FFC8
:10036000F5CFCE010E946A01F1CF8B8DFE01E80F1F
:10037000F11DE35AFF4FF0829FB7F8940B8FEA8983
:10038000FB89808180620AC09FB7F894EE89FF895B
:100390006083E889F98980818370806480839FBF4E
:1003A00081E090E0DF91CF911F910F91FF90EF904E
:1003B0000895CF93DF93EC01888D8823C9F0EA89F3
:1003C000FB89808185FD05C0A889B9898C9186FD4E
:1003D0000FC00FB607FCF5CF808185FFF2CFA8894B
:1003E000B9898C9185FFEDCFCE010E946A01E7CFDC
:1003F000DF91CF91089580E090E0892B29F00E9451
:10040000600181110C9400000895009769F0FC01CF
:1004100001900020E9F73197AF01481B590BBC014F
:1004200087E391E00C94F50080E090E008950E944D
:10043000C6061F920F920FB60F9211242F933F936F
:100440008F939F93AF93BF9380912F019091300131
:10045000A0913101B091320130912E0123E0230FA0
:100460002D3720F40196A11DB11D05C026E8230FEC
:100470000296A11DB11D20932E0180932F01909310
:100480003001A0933101B0933201809133019091FA
:100490003401A0913501B09136010196A11DB11D25
:1004A0008093330190933401A0933501B0933601CA
:1004B000BF91AF919F918F913F912F910F900FBE60
:1004C0000F901F9018951F920F920FB60F92112444
:1004D0002F933F934F935F936F937F938F939F934C
:1004E000AF93BF93EF93FF9387E391E00E946A017C
:1004F000FF91EF91BF91AF919F918F917F916F91FC
:100500005F914F913F912F910F900FBE0F901F90D1
:1005100018951F920F920FB60F9211242F938F935D
:100520009F93EF93FF93E0914701F0914801808101
:10053000E0914D01F0914E0182FD12C090818091B9
:1005400050018F5F8F7320915101821751F0E0911C
:100550005001F0E0E95CFE4F958F8093500101C09F
:100560008081FF91EF919F918F912F910F900FBEFE
:100570000F901F9018951F920F920FB60F92112493
:100580002F933F934F935F936F937F938F939F939B
:10059000AF93BF93EF93FF934B9B0BC00E94D00090
:1005A00060932A0170932B0180932C0190932D016D
:1005B00026C00E94D000609326017093270180938B
:1005C0002801909329018091260190912701A09103
:1005D0002801B091290140912A0150912B0160918D
:1005E0002C0170912D01841B950BA60BB70B8093EA
:1005F000220190932301A0932401B0932501FF9140
:10060000EF91BF91AF919F918F917F916F915F918A
:100610004F913F912F910F900FBE0F901F90189503
:10062000E7E3F1E01382128288EE93E0A0E0B0E00D
:1006300084839583A683B78384E091E0918380834C
:1006400085EC90E09587848784EC90E09787868797
:1006500080EC90E0918B808B81EC90E0938B828B8F
:1006600082EC90E0958B848B86EC90E0978B868B68
:10067000118E128E138E148E0895CF93DF93CDB703
:10068000DEB7A2970FB6F894DEBF0FBECDBF789449
:1006900084B5826084BD84B5816084BD85B5826087
:1006A00085BD85B5816085BD80916E008160809338
:1006B0006E001092810080918100826080938100A1
:1006C00080918100816080938100809180008160B1
:1006D000809380008091B10084608093B10080910C
:1006E000B00081608093B00080917A008460809334
:1006F0007A0080917A00826080937A0080917A00FB
:10070000816080937A0080917A00806880937A007B
:100710001092C100E0914701F091480182E080838E
:10072000E0914301F09144011082E0914501F09184
:1007300046018FEC808310924F01E0914B01F091C4
:100740004C0186E08083E0914901F0914A0180816B
:1007500080618083E0914901F0914A018081886045
:100760008083E0914901F0914A0180818068808313
:10077000E0914901F0914A0180818F7D8083529AF6
:10078000539884E08093680088E080936D005AE07D
:10079000852E912CA12CB12C5A9883E090E00197E2
:1007A000F1F784E08BB983E290E00197F1F75A9872
:1007B0006091220170912301809124019091250183
:1007C0000E94750526E73FE34DE55CE30E942C0699
:1007D00020E030E040E05FE30E942C060E944605E6
:1007E0000E9475056B017C012AE037ED43EF51E46F
:1007F0000E94410587FF02C081E001C080E00E94A5
:100800008700A7019601C701B6010E9499068823B7
:1008100019F082E191E01AC026013701E89477F8D7
:100820002FEF3FEF4FE75FE7C301B2010E94990648
:1008300081110FC02FEF3FEF4FE75FE7C301B20118
:100840000E94410518162CF486E191E00E940502F1
:1008500089C02FEF3FEF4FE75FE4C701B6010E9469
:10086000270618161CF48AE191E0F0CF2FEF3FEF36
:100870004FE75FECC701B6010E94410587FDF3CF4A
:100880002AE037ED43EA5BE3C701B6010E94D504D5
:100890002B013C010E9446056B017C010E947505FD
:1008A0009B01AC01C301B2010E94D4041B012C01C5
:1008B00019A28E010F5D1F4F0AA3712EC701B60149
:1008C000A50194010E949E0669017A01605DF8010C
:1008D00062938F01232B242B252B81F7CF010E94BC
:1008E00005026EE287E391E00E948C0143E0F42E62
:1008F000FA94FF20B9F120E030E040E251E4C20177
:10090000B1010E942C061B012C010E9446059B018F
:1009100040E050E019A20AA1172D662EC32ED42E56
:10092000E52ECA01B901A50194010E949E06605DF1
:10093000F80162938F01211531054105510589F7B1
:10094000CF010E940502662D7C2D8D2D9E2D0E94CB
:1009500075059B01AC01C201B1010E94D4041B01C9
:100960002C01C6CF8EE191E00E940502E7E9F0E09C
:100970002491E3E8F0E08491882399F090E0880FD7
:10098000991FFC01E859FF4FA591B491FC01EE5865
:10099000FF4F859194919FB7F8948C91282B2C93BD
:1009A0009FBF0E94FB01F8CE5058BB27AA270E9488
:1009B000EC040C94ED050E94DF0538F00E94E6057A
:1009C00020F039F49F3F19F426F40C94DC050EF462
:1009D000E095E7FB0C94D605E92F0E94FE0558F33D
:1009E000BA17620773078407950720F079F4A6F514
:1009F0000C9420060EF4E0950B2EBA2FA02D0B01BF
:100A0000B90190010C01CA01A0011124FF27591B53
:100A100099F0593F50F4503E68F11A16F040A22F59
:100A2000232F342F4427585FF3CF469537952795CA
:100A3000A795F0405395C9F77EF41F16BA0B620BC9
:100A4000730B840BBAF09150A1F0FF0FBB1F661F10
:100A5000771F881FC2F70EC0BA0F621F731F841F53
:100A600048F4879577956795B795F7959E3F08F079
:100A7000B0CF9395880F08F09927EE0F979587953B
:100A800008950E94B20508F481E008950E940606C8
:100A900088F09F5798F0B92F9927B751B0F0E1F03F
:100AA000660F771F881F991F1AF0BA95C9F714C0EF
:100AB000B13091F00E942006B1E008950C94200618
:100AC000672F782F8827B85F39F0B93FCCF3869528
:100AD00077956795B395D9F73EF490958095709585
:100AE00061957F4F8F4F9F4F0895E89409C097FB02
:100AF0003EF490958095709561957F4F8F4F9F4FF5
:100B00009923A9F0F92F96E9BB279395F695879538
:100B100077956795B795F111F8CFFAF4BB0F11F4FB
:100B200060FF1BC06F5F7F4F8F4F9F4F16C08823A2
:100B300011F096E911C0772321F09EE8872F762FD8
:100B400005C0662371F096E8862F70E060E02AF019
:100B50009A95660F771F881FDAF7880F9695879505
:100B600097F90895990F0008550FAA0BE0E8FEEFDA
:100B700016161706E807F907C0F012161306E40761
:100B8000F50798F0621B730B840B950B39F40A265A
:100B900061F0232B242B252B21F408950A2609F438
:100BA000A140A6958FEF811D811D089597F99F673C
:100BB00080E870E060E008959FEF80EC08950024E5
:100BC0000A941616170618060906089500240A94B2
:100BD00012161306140605060895092E0394000C38
:100BE00011F4882352F0BB0F40F4BF2B11F460FFC7
:100BF00004C06F5F7F4F8F4F9F4F089557FD9058F0
:100C0000440F551F59F05F3F71F04795880F97FBD0
:100C1000991F61F09F3F79F087950895121613068A
:100C20001406551FF2CF4695F1DF08C016161706B9
:100C30001806991FF1CF86957105610508940895EE
:100C4000E894BB2766277727CB0197F908950E9480
:100C5000B20508F48FEF08950E943F060C94ED054D
:100C60000E94DF0538F00E94E60520F0952311F080
:100C70000C94D6050C94DC0511240C9421060E94DA
:100C8000FE0570F3959FC1F3950F50E0551F629FCD
:100C9000F001729FBB27F00DB11D639FAA27F00DD5
:100CA000B11DAA1F649F6627B00DA11D661F829FFC
:100CB0002227B00DA11D621F739FB00DA11D621FE1
:100CC000839FA00D611D221F749F3327A00D611DFE
:100CD000231F849F600D211D822F762F6A2F1124E0
:100CE0009F5750409AF0F1F088234AF0EE0FFF1F13
:100CF000BB1F661F771F881F91505040A9F79E3F6A
:100D0000510580F00C94D6050C9421065F3FE4F366
:100D1000983ED4F3869577956795B795F795E795BF
:100D20009F5FC1F7FE2B880F911D9695879597F9C8
:100D300008950E94B205880B990B0895A1E21A2E1E
:100D4000AA1BBB1BFD010DC0AA1FBB1FEE1FFF1F6F
:100D5000A217B307E407F50720F0A21BB30BE40BBF
:100D6000F50B661F771F881F991F1A9469F7609506
:100D70007095809590959B01AC01BD01CF010895C0
:100D8000EE0FFF1F0590F491E02D099481E090E0B3
:0A0D9000F8940C94CB06F894FFCF02
:100D9A00000000008C01F5002301D9015401320141
:100DAA0046016E616E00696E66006F7666000D0A16
:020DBA00000037
:00000001FF
